{
  "transactions": [
    {
      "hash": "0xb4a018294f48156f35e9191c44d370d3b904a7c2f30e510bc8f7f06eba8229dd",
      "transactionType": "CREATE",
      "contractName": "ChainlinkPriceOracle",
      "contractAddress": "0x9c67ee172d5a3f001e03d31da8dbf1e3bf188328",
      "function": null,
      "arguments": [
        "0x7FC771b0675dE44c4ee9E8b40b24B7a4eE2804BC"
      ],
      "transaction": {
        "from": "0x7fc771b0675de44c4ee9e8b40b24b7a4ee2804bc",
        "gas": "0x16fb0c",
        "value": "0x0",
        "input": "0x60803460b857601f61144d38819003918201601f19168301916001600160401b0383118484101760bc5780849260209460405283398101031260b857516001600160a01b0381169081900360b857801560a5575f80546001600160a01b031981168317825560405192916001600160a01b03909116907f8be0079c531659141344cd1fd0a4f28419497f9722a3daafe3b4186f6b6457e09080a361137c90816100d18239f35b631e4fbdf760e01b5f525f60045260245ffd5b5f80fd5b634e487b7160e01b5f52604160045260245ffdfe6080806040526004361015610012575f80fd5b5f3560e01c90816301c11d9614610b2e575080631a97300d14610af6578063223780af14610a4b57806361c9f834146108d7578063715018a61461088057806376e11286146106395780637ee185c1146105555780638da5cb5b1461052e5780639d7f7e86146105125780639dcb511a146104d2578063a4592cdc14610476578063ad9f20a614610455578063aff1bf9d14610418578063d11b0973146103dd578063dcd24d7614610287578063e25243461461024f578063eed85789146101a1578063f2fde38b1461011c5763fc57d4df146100ed575f80fd5b3461011857602036600319011261011857602061011061010b610b50565b611157565b604051908152f35b5f80fd5b3461011857602036600319011261011857610135610b50565b61013d611320565b6001600160a01b0316801561018e575f80546001600160a01b03198116831782556001600160a01b0316907f8be0079c531659141344cd1fd0a4f28419497f9722a3daafe3b4186f6b6457e09080a3005b631e4fbdf760e01b5f525f60045260245ffd5b346101185760403660031901126101185760206101bc610b50565b7f37f25b4e09daa2755969e29b42bfec15eb5b67e1e114bb0b994738ffa7a46dc4602435916101e9611320565b6001600160a01b03165f8181526003855260409081902084905551928352928392a2805f52600460205260405f20600160ff198254161790557f3b7ee4923f441ee72606edaec300aa05b7626197fd5dc5135f593ccc907c260c602060405160018152a2005b3461011857602036600319011261011857606061027261026d610b50565b61103e565b90604051928352602083015215156040820152f35b34610118576020366003190112610118576102a0610b50565b6102a8611320565b6001600160a01b039081165f81815260016020526040902054909160049160a091166102d5811515610ffd565b604051633fabe5a360e21b815292839182905afa9081156103d257610e1091610313915f905f92610396575b505f61030d9113610c4c565b42610c98565b1161035857805f52600460205260405f2060ff1981541690557f3b7ee4923f441ee72606edaec300aa05b7626197fd5dc5135f593ccc907c260c60206040515f8152a2005b60405162461bcd60e51b815260206004820152601660248201527550726963652066656564207374696c6c207374616c6560501b6044820152606490fd5b5f925061030d91506103bf9060a03d60a0116103cb575b6103b78183610bb2565b810190610c17565b50949250509150610301565b503d6103ad565b6040513d5f823e3d90fd5b34610118576020366003190112610118576001600160a01b036103fe610b50565b165f526002602052602060ff60405f205416604051908152f35b34610118576020366003190112610118576001600160a01b03610439610b50565b165f526004602052602060ff60405f2054166040519015158152f35b34610118575f36600319011261011857602060405166038d7ea4c680008152f35b34610118576020366003190112610118576060610499610494610b50565b610d61565b91906020604051938492151583526040828401528051918291826040860152018484015e5f828201840152601f01601f19168101030190f35b34610118576020366003190112610118576001600160a01b036104f3610b50565b165f526001602052602060018060a01b0360405f205416604051908152f35b34610118575f366003190112610118576020604051610e108152f35b34610118575f366003190112610118575f546040516001600160a01b039091168152602090f35b346101185760403660031901126101185761056e610b50565b6024359061057a611320565b81156105f45760207f37f25b4e09daa2755969e29b42bfec15eb5b67e1e114bb0b994738ffa7a46dc49166038d7ea4c68000841015806105e0575b6105be90610cb9565b6001600160a01b03165f818152600383526040908190208590555193845292a2005b5069d3c21bcecceda10000008411156105b5565b60405162461bcd60e51b815260206004820152601c60248201527f5072696365206d7573742062652067726561746572207468616e2030000000006044820152606490fd5b3461011857604036600319011261011857610652610b50565b6024356001600160a01b038116919082900361011857610670611320565b6001600160a01b031680156108425781156107fd57604051633fabe5a360e21b815260a081600481865afa9081156103d257610e10916106be915f905f9261039657505f61030d9113610c4c565b116107c55760405163313ce56760e01b8152602081600481865afa80156103d2575f90610788575b60ff9150166012811161074f575f82815260016020908152604080832080546001600160a01b031916871790556002825291829020805460ff19168417905590519182527ff7c146551403df33776fffac5e4f59505aace276d9662bdbe5dbc3b1656d436b91a3005b60405162461bcd60e51b8152602060048201526011602482015270546f6f206d616e7920646563696d616c7360781b6044820152606490fd5b506020813d6020116107bd575b816107a260209383610bb2565b81010312610118575160ff811681036101185760ff906106e6565b3d9150610795565b60405162461bcd60e51b815260206004820152601060248201526f50726963652066656564207374616c6560801b6044820152606490fd5b60405162461bcd60e51b815260206004820152601a60248201527f496e76616c6964207072696365206665656420616464726573730000000000006044820152606490fd5b60405162461bcd60e51b8152602060048201526016602482015275496e76616c6964206c546f6b656e206164647265737360501b6044820152606490fd5b34610118575f36600319011261011857610898611320565b5f80546001600160a01b0319811682556001600160a01b03167f8be0079c531659141344cd1fd0a4f28419497f9722a3daafe3b4186f6b6457e08280a3005b346101185760203660031901126101185760043567ffffffffffffffff8111610118573660238201121561011857806004013567ffffffffffffffff8111610118573660248260051b840101116101185761093181610be8565b61093e6040519182610bb2565b81815261094a82610be8565b6020820190601f19013682375f5b83811015610a0757600581901b90602486830101356001600160a01b03811690819003610118576040519063fc57d4df60e01b82526004820152602081602481305afa9081156103d2575f916109d6575b5084518210156109c25760206001938601015201610958565b634e487b7160e01b5f52603260045260245ffd5b90506020813d82116109ff575b816109f060209383610bb2565b810103126101185751876109a9565b3d91506109e3565b5090604051918291602083019060208452518091526040830191905f5b818110610a32575050500390f35b8251845285945060209384019390920191600101610a24565b3461011857604036600319011261011857610a64610b50565b6024359081151591828103610118577f3b7ee4923f441ee72606edaec300aa05b7626197fd5dc5135f593ccc907c260c91602091610aa0611320565b610acf575b60018060a01b031692835f526004825260405f2060ff1981541660ff8316179055604051908152a2005b6001600160a01b0381165f908152600383526040902054610af1901515610b66565b610aa5565b34610118576020366003190112610118576001600160a01b03610b17610b50565b165f526003602052602060405f2054604051908152f35b34610118575f366003190112610118578069d3c21bcecceda100000060209252f35b600435906001600160a01b038216820361011857565b15610b6d57565b60405162461bcd60e51b815260206004820152601760248201527f456d657267656e6379207072696365206e6f74207365740000000000000000006044820152606490fd5b90601f8019910116810190811067ffffffffffffffff821117610bd457604052565b634e487b7160e01b5f52604160045260245ffd5b67ffffffffffffffff8111610bd45760051b60200190565b519069ffffffffffffffffffff8216820361011857565b908160a091031261011857610c2b81610c00565b91602082015191604081015191610c49608060608401519301610c00565b90565b15610c5357565b60405162461bcd60e51b815260206004820152601760248201527f496e76616c69642070726963652066726f6d20666565640000000000000000006044820152606490fd5b91908203918211610ca557565b634e487b7160e01b5f52601160045260245ffd5b15610cc057565b60405162461bcd60e51b81526020600482015260136024820152725072696365206f7574206f6620626f756e647360681b6044820152606490fd5b60ff6011199116019060ff8211610ca557565b60ff166012039060ff8211610ca557565b60ff16604d8111610ca557600a0a90565b8115610d3a570490565b634e487b7160e01b5f52601260045260245ffd5b81810292918115918404141715610ca557565b6001600160a01b03165f8181526004602052604090205460ff16610fbb575f818152600160205260409020546001600160a01b03168015610f875760a060049160405192838092633fabe5a360e21b82525afa805f925f92610f5e575b50610df6575050505f90604051610dd6604082610bb2565b601081526f119959590818d85b1b0819985a5b195960821b602082015290565b5f821315610f2e57610e0b610e109142610c98565b11610efd5780915f52600260205260ff60405f20541690601282105f14610ece575090610e42610e3d610e4893610d0e565b610d1f565b90610d4e565b66038d7ea4c680008110908115610eba575b50610e8757600190604051610e70604082610bb2565b60078152664865616c74687960c81b602082015290565b5f90604051610e97604082610bb2565b60138152725072696365206f7574206f6620626f756e647360681b602082015290565b69d3c21bcecceda10000009150115f610e5a565b9060128111610edf575b5050610e48565b610ef69250610e3d610ef091610cfb565b90610d30565b5f80610ed8565b50505f90604051610f0f604082610bb2565b600f81526e507269636520746f6f207374616c6560881b602082015290565b5050505f90604051610f41604082610bb2565b600d81526c496e76616c696420707269636560981b602082015290565b909250610f7a915060a03d60a0116103cb576103b78183610bb2565b509392505091905f610dbe565b50505f90604051610f99604082610bb2565b6012815271141c9a58d94819995959081b9bdd081cd95d60721b602082015290565b5f52600360205260405f2054151590604051610fd8604082610bb2565b60158152745573696e6720656d657267656e637920707269636560581b602082015290565b1561100457565b60405162461bcd60e51b8152602060048201526012602482015271141c9a58d94819995959081b9bdd081cd95d60721b6044820152606490fd5b6001600160a01b03165f8181526004602052604090205490919060ff16611144575f828152600160205260409020546004919060a0906001600160a01b0316611088811515610ffd565b604051633fabe5a360e21b815293849182905afa9283156103d2575f925f9461111a575b505f52600260205260ff60405f20541682601282105f146110ef575091610e42610e3d6110d99394610d0e565b905b610e106110e88442610c98565b1191929190565b9060128111611100575b50506110db565b611112929350610e3d610ef091610cfb565b905f806110f9565b90935061113791925060a03d60a0116103cb576103b78183610bb2565b509392505091925f6110ac565b5f91825260036020526040822054914291565b6001600160a01b03165f8181526004602052604090205460ff16611309575f818152600160205260409020546004919060a0906001600160a01b031661119e811515610ffd565b604051633fabe5a360e21b815293849182905afa80156103d2575f925f916112e1575b505f83131561129c576111d7610e109142610c98565b11611257575f52600260205260ff60405f205416601281105f146112335790610e42610e3d61120593610d0e565b66038d7ea4c680008110158061121f575b610c4990610cb9565b5069d3c21bcecceda1000000811115611216565b60128111156112515790610ef0610e3d61124c93610cfb565b611205565b50611205565b60405162461bcd60e51b815260206004820152601960248201527f436861696e6c696e6b20707269636520746f6f207374616c65000000000000006044820152606490fd5b60405162461bcd60e51b815260206004820152601c60248201527f496e76616c69642070726963652066726f6d20436861696e6c696e6b000000006044820152606490fd5b90506112fd91925060a03d60a0116103cb576103b78183610bb2565b5093925050915f6111c1565b5f52600360205260405f2054610c49811515610b66565b5f546001600160a01b0316330361133357565b63118cdaa760e01b5f523360045260245ffdfea26469706673582212209ca7f2014744050d556f970a2e38d9487e29f775e46d10b4af13bb6b6756c0eb64736f6c634300081c00330000000000000000000000007fc771b0675de44c4ee9e8b40b24b7a4ee2804bc",
        "nonce": "0x6f",
        "chainId": "0xaa36a7"
      },
      "additionalContracts": [],
      "isFixedGasLimit": false
    },
    {
      "hash": "0x16ea4f32b2ae86e7d86a02b9e0343b60b99461d15ff1b9f58ffe6b201adffb0b",
      "transactionType": "CALL",
      "contractName": "ChainlinkPriceOracle",
      "contractAddress": "0x9c67ee172d5a3f001e03d31da8dbf1e3bf188328",
      "function": "setEmergencyPrice(address,uint256)",
      "arguments": [
        "0xcF8BA7B373f8ba60f2c19d97d47FfC9c88f87ec1",
        "4200000000000000000000"
      ],
      "transaction": {
        "from": "0x7fc771b0675de44c4ee9e8b40b24b7a4ee2804bc",
        "to": "0x9c67ee172d5a3f001e03d31da8dbf1e3bf188328",
        "gas": "0x10250",
        "value": "0x0",
        "input": "0x7ee185c1000000000000000000000000cf8ba7b373f8ba60f2c19d97d47ffc9c88f87ec10000000000000000000000000000000000000000000000e3aeb5737240a00000",
        "nonce": "0x70",
        "chainId": "0xaa36a7"
      },
      "additionalContracts": [],
      "isFixedGasLimit": false
    },
    {
      "hash": "0x389fbc6dfecea187bbe146373f7866dd6c7c8a21386a665dd09cde2253ff705e",
      "transactionType": "CALL",
      "contractName": "ChainlinkPriceOracle",
      "contractAddress": "0x9c67ee172d5a3f001e03d31da8dbf1e3bf188328",
      "function": "setEmergencyPrice(address,uint256)",
      "arguments": [
        "0x3EE49fdd5ED68eF29727130672232d5D6FC61564",
        "1000000000000000000"
      ],
      "transaction": {
        "from": "0x7fc771b0675de44c4ee9e8b40b24b7a4ee2804bc",
        "to": "0x9c67ee172d5a3f001e03d31da8dbf1e3bf188328",
        "gas": "0x1023f",
        "value": "0x0",
        "input": "0x7ee185c10000000000000000000000003ee49fdd5ed68ef29727130672232d5d6fc615640000000000000000000000000000000000000000000000000de0b6b3a7640000",
        "nonce": "0x71",
        "chainId": "0xaa36a7"
      },
      "additionalContracts": [],
      "isFixedGasLimit": false
    },
    {
      "hash": "0x30fd8dc40e19f54fcfda8065bc4ba83c6f5759a7a3edf036e1f912dd9a93a160",
      "transactionType": "CALL",
      "contractName": "ChainlinkPriceOracle",
      "contractAddress": "0x9c67ee172d5a3f001e03d31da8dbf1e3bf188328",
      "function": "setEmergencyMode(address,bool)",
      "arguments": [
        "0xcF8BA7B373f8ba60f2c19d97d47FfC9c88f87ec1",
        "true"
      ],
      "transaction": {
        "from": "0x7fc771b0675de44c4ee9e8b40b24b7a4ee2804bc",
        "to": "0x9c67ee172d5a3f001e03d31da8dbf1e3bf188328",
        "gas": "0x11d26",
        "value": "0x0",
        "input": "0x223780af000000000000000000000000cf8ba7b373f8ba60f2c19d97d47ffc9c88f87ec10000000000000000000000000000000000000000000000000000000000000001",
        "nonce": "0x72",
        "chainId": "0xaa36a7"
      },
      "additionalContracts": [],
      "isFixedGasLimit": false
    },
    {
      "hash": "0x2c5b8e042ad97dc77bdea755ce1c0f94e13250aa4ba0a32fed36e22f842a6e33",
      "transactionType": "CALL",
      "contractName": "ChainlinkPriceOracle",
      "contractAddress": "0x9c67ee172d5a3f001e03d31da8dbf1e3bf188328",
      "function": "setEmergencyMode(address,bool)",
      "arguments": [
        "0x3EE49fdd5ED68eF29727130672232d5D6FC61564",
        "true"
      ],
      "transaction": {
        "from": "0x7fc771b0675de44c4ee9e8b40b24b7a4ee2804bc",
        "to": "0x9c67ee172d5a3f001e03d31da8dbf1e3bf188328",
        "gas": "0x11d26",
        "value": "0x0",
        "input": "0x223780af0000000000000000000000003ee49fdd5ed68ef29727130672232d5d6fc615640000000000000000000000000000000000000000000000000000000000000001",
        "nonce": "0x73",
        "chainId": "0xaa36a7"
      },
      "additionalContracts": [],
      "isFixedGasLimit": false
    }
  ],
  "receipts": [
    {
      "status": "0x1",
      "cumulativeGasUsed": "0x13043c5",
      "logs": [
        {
          "address": "0x9c67ee172d5a3f001e03d31da8dbf1e3bf188328",
          "topics": [
            "0x8be0079c531659141344cd1fd0a4f28419497f9722a3daafe3b4186f6b6457e0",
            "0x0000000000000000000000000000000000000000000000000000000000000000",
            "0x0000000000000000000000007fc771b0675de44c4ee9e8b40b24b7a4ee2804bc"
          ],
          "data": "0x",
          "blockHash": "0x8a0b93481e15c4598f6b9fd74b10cb7b7eb29aa4da89df2934fb923b5e6912fd",
          "blockNumber": "0x889ef9",
          "blockTimestamp": "0x689880c0",
          "transactionHash": "0xb4a018294f48156f35e9191c44d370d3b904a7c2f30e510bc8f7f06eba8229dd",
          "transactionIndex": "0x52",
          "logIndex": "0x87",
          "removed": false
        }
      ],
      "logsBloom": "0x00000000000000000000000000000000000000000000000000800000000000000000000000000000000000000000000000000000000000000000000000000000000000000000000000000100000000000001000000000000000000000000000000000000020000000000000000000800000000000000000000000000000000400000001020000000001000000000000000000000000000000000004000000000000000000000000000000000000000000000000000000000000000000000000000000000000000000000000000000000000000000000000000000000000020000000000000000000000000000000000000000000000000008000000000000000",
      "type": "0x2",
      "transactionHash": "0xb4a018294f48156f35e9191c44d370d3b904a7c2f30e510bc8f7f06eba8229dd",
      "transactionIndex": "0x52",
      "blockHash": "0x8a0b93481e15c4598f6b9fd74b10cb7b7eb29aa4da89df2934fb923b5e6912fd",
      "blockNumber": "0x889ef9",
      "gasUsed": "0x11ad6c",
      "effectiveGasPrice": "0x17133f",
      "from": "0x7fc771b0675de44c4ee9e8b40b24b7a4ee2804bc",
      "to": null,
      "contractAddress": "0x9c67ee172d5a3f001e03d31da8dbf1e3bf188328"
    },
    {
      "status": "0x1",
      "cumulativeGasUsed": "0x130fec9",
      "logs": [
        {
          "address": "0x9c67ee172d5a3f001e03d31da8dbf1e3bf188328",
          "topics": [
            "0x37f25b4e09daa2755969e29b42bfec15eb5b67e1e114bb0b994738ffa7a46dc4",
            "0x000000000000000000000000cf8ba7b373f8ba60f2c19d97d47ffc9c88f87ec1"
          ],
          "data": "0x0000000000000000000000000000000000000000000000e3aeb5737240a00000",
          "blockHash": "0x8a0b93481e15c4598f6b9fd74b10cb7b7eb29aa4da89df2934fb923b5e6912fd",
          "blockNumber": "0x889ef9",
          "blockTimestamp": "0x689880c0",
          "transactionHash": "0x16ea4f32b2ae86e7d86a02b9e0343b60b99461d15ff1b9f58ffe6b201adffb0b",
          "transactionIndex": "0x53",
          "logIndex": "0x88",
          "removed": false
        }
      ],
      "logsBloom": "0x00000000000000000000000000000000000000000000000010000000000000008004000000000000000000000000000000000000000000000000000000000000000000000000000000000000000000000000020000000000000000000000000000000000000000000000000000000000000000000000000000000000000004000000001000000000000000000000000000000000000000000000004000000000000000000000000000000000000000000000000000000000000000000000000000020000000000000000000000000000000000000000000000000000000000000000000000000000000000000000000000000000000000008000000000000000",
      "type": "0x2",
      "transactionHash": "0x16ea4f32b2ae86e7d86a02b9e0343b60b99461d15ff1b9f58ffe6b201adffb0b",
      "transactionIndex": "0x53",
      "blockHash": "0x8a0b93481e15c4598f6b9fd74b10cb7b7eb29aa4da89df2934fb923b5e6912fd",
      "blockNumber": "0x889ef9",
      "gasUsed": "0xbb04",
      "effectiveGasPrice": "0x17133f",
      "from": "0x7fc771b0675de44c4ee9e8b40b24b7a4ee2804bc",
      "to": "0x9c67ee172d5a3f001e03d31da8dbf1e3bf188328",
      "contractAddress": null
    },
    {
      "status": "0x1",
      "cumulativeGasUsed": "0x131b9c1",
      "logs": [
        {
          "address": "0x9c67ee172d5a3f001e03d31da8dbf1e3bf188328",
          "topics": [
            "0x37f25b4e09daa2755969e29b42bfec15eb5b67e1e114bb0b994738ffa7a46dc4",
            "0x0000000000000000000000003ee49fdd5ed68ef29727130672232d5d6fc61564"
          ],
          "data": "0x0000000000000000000000000000000000000000000000000de0b6b3a7640000",
          "blockHash": "0x8a0b93481e15c4598f6b9fd74b10cb7b7eb29aa4da89df2934fb923b5e6912fd",
          "blockNumber": "0x889ef9",
          "blockTimestamp": "0x689880c0",
          "transactionHash": "0x389fbc6dfecea187bbe146373f7866dd6c7c8a21386a665dd09cde2253ff705e",
          "transactionIndex": "0x54",
          "logIndex": "0x89",
          "removed": false
        }
      ],
      "logsBloom": "0x00000000000000000000000000040000000000000000000000000000000000008004200000000000000000000000000000000000000000000000000000000000000000000000000000000000000000000000000000000000000000000000000000000000000000000000000000000000000000000000000000000000000000000000001000000000000000000000000000000000000000000000004000000000000000000000000000000000000000000000000000000000000000000000000000020002000000000000000000000000000000000000000000000000000000000000000000000000000000000000000000000000000000008000000000000000",
      "type": "0x2",
      "transactionHash": "0x389fbc6dfecea187bbe146373f7866dd6c7c8a21386a665dd09cde2253ff705e",
      "transactionIndex": "0x54",
      "blockHash": "0x8a0b93481e15c4598f6b9fd74b10cb7b7eb29aa4da89df2934fb923b5e6912fd",
      "blockNumber": "0x889ef9",
      "gasUsed": "0xbaf8",
      "effectiveGasPrice": "0x17133f",
      "from": "0x7fc771b0675de44c4ee9e8b40b24b7a4ee2804bc",
      "to": "0x9c67ee172d5a3f001e03d31da8dbf1e3bf188328",
      "contractAddress": null
    },
    {
      "status": "0x1",
      "cumulativeGasUsed": "0x1327cbb",
      "logs": [
        {
          "address": "0x9c67ee172d5a3f001e03d31da8dbf1e3bf188328",
          "topics": [
            "0x3b7ee4923f441ee72606edaec300aa05b7626197fd5dc5135f593ccc907c260c",
            "0x000000000000000000000000cf8ba7b373f8ba60f2c19d97d47ffc9c88f87ec1"
          ],
          "data": "0x0000000000000000000000000000000000000000000000000000000000000001",
          "blockHash": "0x8a0b93481e15c4598f6b9fd74b10cb7b7eb29aa4da89df2934fb923b5e6912fd",
          "blockNumber": "0x889ef9",
          "blockTimestamp": "0x689880c0",
          "transactionHash": "0x30fd8dc40e19f54fcfda8065bc4ba83c6f5759a7a3edf036e1f912dd9a93a160",
          "transactionIndex": "0x55",
          "logIndex": "0x8a",
          "removed": false
        }
      ],
      "logsBloom": "0x00000000000000000000000000000000000000000000000010000000000000000000000000000001000000000000000000000000000000000000000000000000000000000000000000000000000000000000020000000000400000000000000000000000000000000000000000000000000000000000000000100000000004000000001000000000000000000000000000000000000000000000004000000000000000000000000000000000000000000000000000000000000000000000000000000000000000000000000000000000000000000000000000000000000000000000000000000000000000000000000000000000000000008000000000000000",
      "type": "0x2",
      "transactionHash": "0x30fd8dc40e19f54fcfda8065bc4ba83c6f5759a7a3edf036e1f912dd9a93a160",
      "transactionIndex": "0x55",
      "blockHash": "0x8a0b93481e15c4598f6b9fd74b10cb7b7eb29aa4da89df2934fb923b5e6912fd",
      "blockNumber": "0x889ef9",
      "gasUsed": "0xc2fa",
      "effectiveGasPrice": "0x17133f",
      "from": "0x7fc771b0675de44c4ee9e8b40b24b7a4ee2804bc",
      "to": "0x9c67ee172d5a3f001e03d31da8dbf1e3bf188328",
      "contractAddress": null
    },
    {
      "status": "0x1",
      "cumulativeGasUsed": "0x1333fb5",
      "logs": [
        {
          "address": "0x9c67ee172d5a3f001e03d31da8dbf1e3bf188328",
          "topics": [
            "0x3b7ee4923f441ee72606edaec300aa05b7626197fd5dc5135f593ccc907c260c",
            "0x0000000000000000000000003ee49fdd5ed68ef29727130672232d5d6fc61564"
          ],
          "data": "0x0000000000000000000000000000000000000000000000000000000000000001",
          "blockHash": "0x8a0b93481e15c4598f6b9fd74b10cb7b7eb29aa4da89df2934fb923b5e6912fd",
          "blockNumber": "0x889ef9",
          "blockTimestamp": "0x689880c0",
          "transactionHash": "0x2c5b8e042ad97dc77bdea755ce1c0f94e13250aa4ba0a32fed36e22f842a6e33",
          "transactionIndex": "0x56",
          "logIndex": "0x8b",
          "removed": false
        }
      ],
      "logsBloom": "0x00000000000000000000000000040000000000000000000000000000000000000000200000000001000000000000000000000000000000000000000000000000000000000000000000000000000000000000000000000000400000000000000000000000000000000000000000000000000000000000000000100000000000000000001000000000000000000000000000000000000000000000004000000000000000000000000000000000000000000000000000000000000000000000000000000002000000000000000000000000000000000000000000000000000000000000000000000000000000000000000000000000000000008000000000000000",
      "type": "0x2",
      "transactionHash": "0x2c5b8e042ad97dc77bdea755ce1c0f94e13250aa4ba0a32fed36e22f842a6e33",
      "transactionIndex": "0x56",
      "blockHash": "0x8a0b93481e15c4598f6b9fd74b10cb7b7eb29aa4da89df2934fb923b5e6912fd",
      "blockNumber": "0x889ef9",
      "gasUsed": "0xc2fa",
      "effectiveGasPrice": "0x17133f",
      "from": "0x7fc771b0675de44c4ee9e8b40b24b7a4ee2804bc",
      "to": "0x9c67ee172d5a3f001e03d31da8dbf1e3bf188328",
      "contractAddress": null
    }
  ],
  "libraries": [],
  "pending": [],
  "returns": {},
  "timestamp": 1754824897882,
  "chain": 11155111,
  "commit": "0c29e17"
}